:020000040800F2
:10000000681500209D010008ED3A00083B35000806
:10001000E93A0008C7140008B558000800000000BD
:10002000000000000000000000000000C5470008BC
:10003000F315000800000000EF3A0008C747000869
:10004000B7010008B7010008B7010008B7010008B0
:10005000B7010008B7010008B7010008B7010008A0
:10006000B7010008B7010008B7010008B701000890
:10007000B7010008B7010008B7010008B701000880
:10008000B7010008B7010008B7010008B701000870
:10009000CD140008B7010008B7010008B701000837
:1000A000B7010008B7010008B7010008B701000850
:1000B000B7010008B7010008B7010008B701000840
:1000C000B7010008B7010008B7010008B701000830
:1000D000B701000811580008B7010008B70100086F
:1000E000B7010008B7010008B7010008B701000810
:1000F000B7010008B7010008B7010008B701000800
:10010000B7010008B7010008B7010008B7010008EF
:10011000B7010008B7010008B7010008B7010008DF
:10012000B7010008B7010008B7010008B7010008CF
:10013000B7010008B7010008B7010008B7010008BF
:10014000B7010008B7010008B7010008B7010008AF
:10015000B7010008B7010008B7010008B70100089F
:10016000B7010008B7010008B7010008B70100088F
:10017000B7010008B7010008B7010008000000003F
:10018000B7010008B7010008DFF80CD000F06AFFE3
:1001900000480047BD9900086815002006488047C0
:1001A00006480047FEE7FEE7FEE7FEE7FEE7FEE75C
:1001B000FEE7FEE7FEE7FEE7854800088901000844
:1001C0002DE9F05F0546002092469B46884606468C
:1001D000814640241BE0284641464746224600F01F
:1001E00030FD53465A46C01A914110D31146184665
:1001F000224600F017FD2D1A67EB01084F462246F4
:100200000120002100F00EFD17EB00094E41201ED9
:10021000A4F10104DFDC484631462A464346BDE8E6
:10022000F09F40EA01039B0703D009E008C9121FB1
:1002300008C0042AFAD203E011F8013B00F8013BA0
:10024000521EF9D27047D2B201E000F8012B491ECC
:10025000FBD270470022F6E710B513460A46044663
:100260001946FFF7F0FF204610BD421C10F8011B95
:100270000029FBD1801A704710B5002200E0521C03
:10028000835C8C5CA34201D1002BF8D1D8B2E1B2DF
:10029000401A10BD30B505460020034600E05B1C47
:1002A000934205D2EC5CC85C201A01D1002CF6D137
:1002B00030BD000070B50F4D00B92868002412E071
:1002C0000A4602E09E4203D0521C1378002BF9D15B
:1002D000DAB2224305D02BB124B1002100F8011B72
:1002E00004E00446401C0678002EE9D12860204630
:1002F00070BD0000480000200FB400B58DB010A9FB
:1003000009900B9000914FF0FF300A9000200C9064
:1003100005480690054807906A4609A80F9900F01D
:10032000C7FC0DB05DF814FBCD0C0008EB0C000809
:100330002DE9FF5F1D464FF0FF3BD5E90146914691
:100340005F464FF00008A9697F1C01988847296A19
:10035000824688470028F6D1BAF1FF3F0CD024F43A
:10036000C064002E19DD600614D5BAF12B0F09D038
:10037000BAF12D0F0ED103E0584604B0BDE8F09F4E
:1003800044F48064A9697F1C01988847761E8246E0
:10039000002E02DDBAF1300F03D0B9F1000F26D0E4
:1003A00032E0A969761E44F400747F1C01988847E6
:1003B0008246002E05DDBAF1780F06D0BAF1580F4B
:1003C00003D0B9F1000F10D01EE0B9F1000F02D038
:1003D000B9F1100F18D1A969761E24F400747F1C9E
:1003E000019888478246102002E0082000E00A2099
:1003F000814609E008FB0908A969761E44F40074E7
:100400007F1C019888478246002E05DD49465046EC
:1004100000F039FC0028EDDAE96901988847A00569
:1004200002D46FF00100A8E7E00725D1600613D5DC
:10043000600502D5C8F1000000E0404629680A1DA9
:100440002A600968220501D5087015E0220701D548
:10045000088011E008600FE02868011D296000682D
:10046000210502D580F8008006E0210702D5A0F81A
:10047000008001E0C0F8008038467EE72DE9FF4F9C
:10048000087883B09946FF2805D0491C2D2804D050
:100490000024002008E000200BE00124F9E700EB35
:1004A000800003EB4000491C0B78FF2BF7D104B10F
:1004B000404200230293147819461D462D2C01D08A
:1004C0002B2C04D1521C2D2C13D000240294AA46AC
:1004D0001478FF2C0FD00A25A3FB057801FB0581BA
:1004E0004FF0000C03FB0C11521CE3194AEB010105
:1004F000EEE70124EAE7814453EA010002D019F54E
:10050000C87F06DA03980021C0E9001107B0BDE8F2
:10051000F08F0025AE4E2F46DFF8B882184600F067
:100520007DFDCDE90001B9F1000002DAC9F1000456
:1005300000E004460023A74A1AEB030B42EB045ADF
:1005400012E0E00707D02A4633463846414600F01D
:10055000F9F9074688462A4633461046194600F000
:10056000F1F905460E466410002CEAD1DDE90001E0
:10057000B9F1000F5A46534606DA00F055FA3A46EA
:10058000434600F051FA05E000F0DCF93A464346F4
:1005900000F0D8F9029A0AB181F00041039AC2E949
:1005A0000001B3E72DE9FF4F1F468DB0D7E90146A3
:1005B0004FF0FF382E2045464FF000090B90B969E7
:1005C0006D1C0E988847396A824688470028F6D104
:1005D000BAF1FF3F0AD024F4D064002E11DDBAF145
:1005E0002B0F08D0BAF12D0F0BD102E0404611B00D
:1005F0008DE744F48064B9696D1C0E988847824683
:10060000761E6946600501D52D2000E02B208DF86F
:10061000000001F1010B0DF1200809E0B9696D1C22
:100620000E98884782460F9844F40074761E056041
:10063000002E02DDBAF1300FF0D00B998A453ED181
:1006400044F0800406E00F99681CA9F1010944F404
:1006500000740860B9696D1C761E0E988847824642
:100660003028F0D02BE00B998A4505D1200603D421
:1006700044F08004761E18E0504608F037F808B3BE
:100680000DF11301761E44F400748B4508D2AAF1D3
:1006900030000BF8010B200607D5A9F1010003E09B
:1006A000200602D409F101008146A00502D50F9968
:1006B000681C0860B9696D1C0E9888478246002E38
:1006C000D1DC53E0002E51DDBAF1650F02D0BAF152
:1006D000450F4BD1A00549D5B9696D1C24F4407470
:1006E000761E0E9888478246002E0CDD2B2804D0FB
:1006F000BAF12D0F07D144F48074B9696D1C0E98BE
:1007000088478246761EE00501D52D2100E02B2189
:1007100008F8011BCDF82C8021E00DF12901761E8F
:1007200044F4007488450CD2AAF1300010F0FF00A8
:1007300088F8000002D10B99884509D908F1010811
:1007400006E0E00501D5244801E042F20F70814641
:10075000B9696D1C0E98884782460F980560002E77
:1007600004DD504607F0C2FF0028D6D1F9690E9883
:100770008847FF208BF8000088F8000000200690D2
:1007800007904B466A4608A906A8FFF777FEA00522
:1007900002D46FF001002AE714F0240F0AD0E0071A
:1007A00014D1DDE906123868031D3B600068C0E91A
:1007B00000120BE0DDE9060100F002FA0146E00755
:1007C00004D13868021D3A600068016028460EE7CF
:1007D000000014400000F03FF1D8FFFF70B506465E
:1007E00005F0B6F8046805460A220021304600F0FC
:1007F0008DFA2C6070BD2DE9FE4F804681EA030022
:10080000C00F0C46009021F0004123F00045B8EBEA
:100810000200A94105D24046214690461C460B469F
:10082000024623F00040104347D0270DC7F30A00CB
:10083000C3F30A510290401A019040286BDAC3F3C7
:10084000130040F4801B0098924620B10023D2EBA5
:10085000030A63EB0B0B01985946C0F14002504666
:1008600000F0E0F906460D4650465946019A00F060
:10087000F8F910EB08006141002487EA115284EA7C
:10088000E7731A4340D0009A62B3019A012A4FEAF3
:10089000075215DC001B61EB02014FF0004202EA37
:1008A0000752CDE90042001C41F5801132462B462B
:1008B00000F0AAFA03B0BDE8F08F40462146F9E700
:1008C000001B61EB0201001C41F5801300185B4125
:1008D0002018A2F5001747EB030140EAD570B619BE
:1008E0006D4111E06D084FEA360645EAC0754FEAE2
:1008F0000752001B61EB0201001C41F58011490801
:100900004FEA30000019514132462B4603B0BDE892
:10091000F04F00F06ABA0098012240000023D0EBAB
:10092000020263EBE073009821464FEAE074B8EBF3
:10093000000061EB0401E9E783F000435BE781F02D
:10094000004158E72DE9FE4F81EA030404F000441A
:1009500021F0004100944FF0000B23F0004350EAD7
:1009600001045ED052EA03045BD0C3F30A54C1F31E
:100970000A552C44A4F2F3340194A0FB0254C1F3B1
:10098000130141F48011C3F3130343F4801301FBFB
:10099000024400FB034E840A970A44EA815447EA62
:1009A0008357A4FB076802958D0A05FB07854FEA6C
:1009B000932C04FB0C542705029D4FEA065847EA86
:1009C0001637B5EB08056EEB070C870E920E47EA5B
:1009D000811742EA8312A7FB0201B6EB0B0164EB1D
:1009E00000042B0D43EA0C335E1844EB1C50DA462E
:1009F0005146E7FB0201C5F313044FEA0B3343EA08
:100A000014534FEA0432019C43EA0603A4F10C0498
:100A10000294009CCDE900B400F0F6F903B0BDE803
:100A2000F08F00200146F9E72DE9F04D81EA03043B
:100A300004F0004B21F0004514464FF0000A23F06B
:100A4000004150EA050220D054EA01021DD0C5F34E
:100A50000A570246C5F31303C1F31300C1F30A5644
:100A600040F4801543F48013A7EB0608101BD6460C
:100A700008F2FD3873EB050002D308F1010801E02C
:100A800092185B41B8F1000F03DA00200146BDE87F
:100A9000F08D00204FF48011064684460EE0171BAF
:100AA00073EB050705D3121B63EB050306434CEA02
:100AB000010C49084FEA300092185B4150EA0107E7
:100AC000EDD152EA030012D082EA040083EA050164
:100AD000084305D0101BAB4106D20122002306E0DB
:100AE00000224FF0004302E06FF0010253101AEBB6
:100AF00006004CEB085110EB0A0041EB0B01BDE87E
:100B0000F04D00F072B9C1F30A5210B5C1F31301F0
:100B100040F2FF3341F480119A4201DA002010BD07
:100B200040F233439A42A2F2334203DC524200F0D5
:100B300088F810BD904010BD00F0004230F0004039
:100B40000AD0C10D01F56071C0F3160042EA0151EF
:100B5000C20840071143704700200146704700005B
:100B600030B5041E71F1000404DB4FF00044404234
:100B700064EB0101141E73F1000405DB1C464FF009
:100B80000043524263EB04038B4208BF824230BDF4
:100B900030B5041E71F1000404DB4FF00044404204
:100BA00064EB0101141E73F1000405DB1C464FF0D9
:100BB0000043524263EB0403994208BF904230BDA8
:100BC00001F0004330B421F0004150EA010206D0A8
:100BD0000A0DA2F56072C1F31301002A02DC30BCD9
:100BE00000207047440F44EAC104C100E01830BC43
:100BF00000EBC25000F0C2B830B50B4601460020F1
:100C00002022012409E021FA02F59D4205D303FACE
:100C100002F5491B04FA02F52844151EA2F101024F
:100C2000F1DC30BD202A04DB203A00FA02F100207A
:100C300070479140C2F1200320FA03F3194390401A
:100C40007047202A04DB203A21FA02F00021704785
:100C500021FA02F3D040C2F1200291400843194624
:100C60007047202A06DBCB17203A41FA02F043EA0C
:100C7000E07306E041FA02F3D040C2F12002914055
:100C80000843194670473A2800D2303820F0200235
:100C9000412A01D3A2F13700884201D34FF0FF303F
:100CA00070470000026811441378016018467047CD
:100CB000D16004495161044911620021116111465A
:100CC00000F0F0B9A50C000891100008426842B18C
:100CD000016811F8013B23B1521EC0E90012184609
:100CE00070470121C160881E704742685AB1C368CD
:100CF000016843B983688B4205D0491E521CC0E984
:100D00000012002070474FF0FF3070472DE9F04788
:100D100091460F4680460446002614F8015B2DB12B
:100D200000F0B2F90068405DC007F6D12B2D02D06B
:100D30002D2D18D0641E4A463946204600F048FB47
:100D400027B13968A14201D1C7F8008071054FF081
:100D500002040BD54042002803DD04F0F9FD0460D5
:100D6000A007BDE8F08746F48066E4E70028F8DADB
:100D700004F0EEFD04606FF00040F2E70029A8BF28
:100D80007047401C490008BF20F00100704710B4B4
:100D9000B0FA80FC00FA0CF050EA010404BF10BC69
:100DA000704749B1CCF1200421FA04F411FA0CF196
:100DB00018BF012121430843A3EB0C01CB1D4FEACF
:100DC00000614FEA102042BF002010BC704700EBCA
:100DD000C35010440029A4BF10BC7047401C4900F8
:100DE00008BF20F0010010BC704710B5141E73F14D
:100DF000000408DA401C41F1000192185B411A43DB
:100E000001D120F0010010BD2DE9F04D92469B4626
:100E100011B1B1FA81F202E0B0FA80F220329046CC
:100E2000FFF700FF04460F4640EA0A0041EA0B01C3
:100E300053465A46084313D0114653EA010019D0CD
:100E4000C8F140025046FFF7FCFE05460E465046EC
:100E500059464246FFF7E6FE084305D0012004E06C
:100E600020463946BDE8F08D0020054346EAE0768D
:100E70002C4337430A986305E40AA0EB08000022DC
:100E8000FD0A44EA47540A3002D500200146E9E74A
:100E9000010510196941DDE9084500196941BDE8FE
:100EA000F04DA2E770B521F0004303430CD0C1F32D
:100EB0000A550024D5EB040564EB0403D617AD1ADC
:100EC000B34102DB0020014670BD201841EB025106
:100ED00070BD2DE9F04D00231A461B1A8A4103DB31
:100EE00000200146BDE8F08DC1F30A52C1F31301A1
:100EF00041F480154FF0000BD10702D100186D416D
:100F0000521E0027044640F2FF11384601EB620AE8
:100F10003E468046024600204FF48011FFF791FEC6
:100F2000C2197141BB1846EB0100B4EB030C75EB21
:100F3000000C04D3E41A65EB000517460E4624198D
:100F400008F101006D4180463428E3DDF91946EBD4
:100F50000600091BA84103D24FF0FF32134601E0FF
:100F6000002213461BEB070046EB0A51BDE8F04D8B
:100F7000FFF73BBF2DE9FE4FC3F30A5701F00045D1
:100F80000024C1F30A56C3F31303C1F3130143F45E
:100F9000801312EB020AA64641F48011009543EB40
:100FA000030CA7F1010B16E0B0EB0A0061EB0C019A
:100FB000071E71F1000707DA4FF00008D0EB0800B8
:100FC00085F0004568EB0101171A73EB0107EBD3BD
:100FD000761E001849415E45F6DA50EA010209D052
:100FE000CDE900E5002213460296FFF70DFF03B09E
:100FF000BDE8F08F20460099F9E70EB5C10F80EAF1
:10100000E0700844CA07002140F233438DE80E0027
:101010000A460B46FFF7F8FE03B000BD0EB540F2DE
:10102000334202920022CDE900221346FFF7ECFE84
:1010300003B000BDC1F30A52C1F3130140F2FF3304
:1010400041F480119A4202DA00200146704740F2D2
:1010500033439A42A2F2334202DC5242FFF7F1BD1F
:10106000FFF7E0BD064C074D06E0E06840F00103E5
:1010700094E8070098471034AC42F6D3FFF788F89D
:1010800068C5000888C5000800487047ACC3000860
:1010900010B50446FFF7F8FF0068005D00F001009E
:1010A00010BD00002DE9F34F8BB04FF0000801F1A7
:1010B0000C000C464FF0010B46460DF1080A01905A
:1010C0006269012101989047051E2DD0252D2CD055
:1010D000216A8847C0B16269012101989047216A5D
:1010E00088470028F7D1411E62690198904700E0C7
:1010F000761CA1690B988847216A88470028F7D198
:10110000E1690B988847DBE7A1690B988847074698
:10111000A84201D1761CD3E7E1690B9888477F1C70
:1011200002D1B8F1000F6FD046E1002762693D4659
:101130003946019890472A2804D162690121019813
:1011400090470125DFF88492626901210198904758
:10115000A0F130010A290AD24F45E5DC07EB8701EF
:1011600000EB4107303FDFD445F01005ECE7E9061E
:1011700001D46FF000476C280AD04C2814D068289E
:1011800015D06A280DD074281CD07A281AD01DE0FA
:1011900062690121019890476C2802D045F004054E
:1011A00014E045F002050DE045F020050AE0626913
:1011B000012101989047682802D045F0080505E014
:1011C00045F400656269012101989047C4E901571F
:1011D00065283DD019DC58287AD00CDC452837D05A
:1011E00004DC252826D0412831D131E046282FD0F3
:1011F00047282CD12CE05B2877D0612828D06328A1
:101200007CD0642823D15AE0D0E06F2848D008DC95
:1012100066281DD067281BD0692821D06E2816D1DA
:1012200027E0702845D0732868D0752847D07828E3
:101230000DD14DE0A1690B988847054625283FF45C
:1012400069AFE1690B9888476D1C3FF46AAFB3E062
:1012500023466A466FF001000B99FFF7A3F99EE061
:1012600045F040006060A80723464FF0000236D4E6
:101270003EE0E8077FF447AF2068011D2160006869
:10128000290501D506701BE7290701D5068017E758
:10129000A90703D5F117C0E9006111E706600FE760
:1012A00045F040006060A80723464FF0080216D4BE
:1012B0001EE040F60E0125EA0100606016E045F0F0
:1012C00040006060A80723464FF00A0207D40FE0F1
:1012D00045F040006060A80708D5234610226FF053
:1012E00001000B99AFF3008059E007E0234610227C
:1012F0006FF001000B99FFF71BF850E04FF0000969
:101300004F464B46632802D05B2806D040E0E806F3
:1013100001D40120A06001273AE06269012101980F
:1013200090475E2805D14FF001096269494601984E
:101330009047216939B900210A46534643F82120D4
:10134000491C0829FADBB0B3216969B9C11700EB60
:10135000D16253110AEB830122F01F02821A01208D
:101360000B68904003430B6062690121019890472C
:101370005D28E8D1B9F1000F09D00020514651F89D
:101380002020D24341F82020401C0828F7DB02AB84
:10139000224600976FF001000B99AFF30080002800
:1013A0000CDA401C08D1BBF1000F05D04FF0FF3024
:1013B0000DB0BDE8F08FFFE74046F9E7E90701D13E
:1013C00008F1010806444FF0000B79E6CCCCCC0CB8
:1013D0002DE9F05F82460078002715468B460AF11A
:1013E0000104B946302801D09DB113E014F8010B77
:1013F0000127782803D0582801D045B10AE00DB163
:10140000102D07D10027102514F8010B02E0082544
:1014100000E00A250026B0460EE005FB080005FBAB
:1014200006F1012701EB10461FFA80F8B6F5803F60
:1014300000D3B94614F8010B2946FFF724FC002815
:10144000EBDABBF1000F05D00FB1641E00E054468B
:10145000CBF80040B9F1000F06D004F079FA022170
:101460000160C81EBDE8F09F48EA0640FAE70EB5E5
:1014700040F2334102910021CDE900110A460B46AA
:10148000FFF7C2FC03B000BD70B5C1F30A5201F012
:1014900000450024C1F3130140F2FF3341F48011F1
:1014A0009A4201DA002070BD40F233439A42A2F220
:1014B000334203DC5242FFF7C4FB00E090402C4370
:1014C000F1D0404270BD00BFFEE7000010B500241F
:1014D0000E4BA3F11C0200210D4800F02EFC80B938
:1014E0000A481C380069C4B204E0002107480155CD
:1014F000601CC4B2082CF8DB012004491C3981F8B7
:101500007400034800F0D6FC10BD000078000020F5
:10151000D40000200146087810381823B0FBF3F2FD
:101520000848805CC865032A05D908686FF309007C
:10153000001D886503E008686FF309008865886D01
:1015400070470000A4B70008014600208A6A8B6932
:10155000CBB932B1012A0DD0022A03D0032A10D10F
:101560000EE000BFCB6A03F08073B3F1807F00D13F
:10157000012007E0CB6AB3F1C07F00D1012001E078
:1015800000E000BF34E08B69B3F5005F1AD132B1DF
:10159000012A07D0022A03D0032A11D10AE000BF92
:1015A00001200EE0CB6A03F08073B3F1807F00D19D
:1015B000012006E0CB6AB3F1C07F00D1012000E03A
:1015C00000BF15E032B1012A05D0022A04D0032A57
:1015D0000CD103E000BF00BF012008E0CB6A03F09C
:1015E0008073B3F1807F00D1012000E000BF00BF15
:1015F000704770472DE9F04706460F461546984656
:10160000DDE9099A089C10480670FD200E494870D3
:10161000084687702812C8700D71084680F805804A
:10162000200E8871200CC871200A08724C7208467E
:1016300080F80A9080F80BA06B2008730D210248F7
:1016400007F05AFCBDE8F087CC07002070B50546CE
:101650000E46002444480555641C701F122877D29A
:10166000DFE800F0090F151B21272D33393F454BCB
:1016700051575D63697024203B490855601CC4B212
:1016800067E0262038490855601CC4B261E0272075
:1016900035490855601CC4B25BE029203249085521
:1016A000601CC4B255E030202F490855601CC4B2FC
:1016B0004FE031202C490855601CC4B249E032206B
:1016C00029490855601CC4B243E033202649085517
:1016D000601CC4B23DE0342023490855601CC4B2EC
:1016E00037E0352020490855601CC4B231E036206F
:1016F0001D490855601CC4B22BE037201A49085513
:10170000601CC4B225E0382017490855601CC4B2DB
:101710001FE0392014490855601CC4B219E03A2072
:1017200011490855601CC4B213E03B200E4908550E
:10173000601CC4B20DE03C200B490855601CC4B2CB
:1017400007E005E03D2008490855601CC4B200E0F0
:1017500000BF00BF6B2004490855601CC4B221467D
:10176000014807F0C9FB70BD6C08002010B50446A5
:10177000064804700A20054948706D2088706B2067
:10178000C8700421014807F0B7FB10BD7C0500209C
:1017900070B505460C4608480570FE20064948709D
:1017A000982088700846C4706B2008710521024893
:1017B00007F0A2FB70BD0000DC07002010B5044656
:1017C00006480470FF2005494870662088706B2029
:1017D000C8700421014807F08FFB10BDEC07002002
:1017E00000BFFEE710B5002201B909E0012901D1CF
:1017F0000A0205E0022901D10A0201E04FF4407219
:101800000E4B1B6823F440730C4C236023461B686B
:101810001343236023461B6823F0F8032360234609
:101820001B68022444EAC0042343044C236023467B
:101830001B6843F48033236010BD0000103C02405D
:101840001C48006800F40070B0B11A48006820F429
:1018500000701849086000BF0846006840F4006046
:1018600008600846006820F40060086000BF084671
:10187000006840F4007008600E48006800F4806062
:10188000B0B10C48006820F480600A49086000BFCD
:101890000846006840F4805008600846006820F45C
:1018A0008050086000BF0846006840F4806008600F
:1018B00070470000003C02400A4A126822F440725D
:1018C000084B1A601A46126842F004021A601A465F
:1018D00012684FF4803343EA00231A43014B1A6025
:1018E00070470000103C0240074A126822F4407220
:1018F000054B1A601A4612681A601A46126842F0BE
:1019000001021A6001707047103C024010B50D4989
:10191000096821F440710B4C21602146096841F4AB
:10192000407121602146096841F001012160026097
:1019300000BF00BF00BFBFF36F8F00BF00BF00BF7D
:10194000436010BD103C0240084A126822F4407205
:10195000064B1A601A46126842F480721A601A46E0
:10196000126842F001021A6001807047103C024088
:10197000084A126822F44072064B1A601A4612682E
:1019800042F400721A601A46126842F001021A60AC
:1019900001607047103C02402348006800F01000CE
:1019A00040B12248C06940F010002049C8611020B1
:1019B0001D4908601C48006800F0200040B11B4829
:1019C000C06940F008001949C86120201649086024
:1019D0001548006800F0400040B11448C06940F06C
:1019E00004001249C86140200F4908600E48006891
:1019F00000F0800040B10D48C06940F002000B4982
:101A0000C8618020084908600748006800F00200AB
:101A100040B10648C06940F020000449C861022076
:101A200001490860704700000C3C0240180D00207E
:101A300070B50446002500201449C86100F016FF67
:101A4000054609E0601C38B124B100F00FFF401BCF
:101A5000A04201D9032070BD0D48006800F4803019
:101A60000028EFD10A48006800F0010010B1012001
:101A7000074908600648006800F0F20018B1FFF757
:101A80008BFF0120E7E70020E5E70000180D0020AC
:101A90000C3C024010B5024692F82030012B01D0D8
:101AA000022B06D110684069084314686061002069
:101AB00010BD506A40F4802050620120F8E7F0B574
:101AC00004460D461E4694F8207020688368A86876
:101AD00000B900E000BF012F01D0022F7CD103F03C
:101AE000806030B903F0006018B903F0805000281E
:101AF00073D0C3F30161022905D9606A40F4000084
:101B000060620120F0BD012088403060A86860B9A3
:101B1000B5F800C0E86840EA4C5C206800F5C07089
:101B200000EB0110C0F800C00FE0D5E901C040EAA9
:101B3000CC00D5F80CC040EA0C00D4F800C00CF57D
:101B4000C07C0CEB011CCCF80000D5F810C020685C
:101B500000F5C07000EB0110C0F804C0287D01281A
:101B60000ED1206800F5C07000EB0110406840F411
:101B7000807C206800F5C07000EB0110C0F804C044
:101B8000D079000692F806C040EA0C4092F805C0F1
:101B900040EA0C2C10794CEA000C206800F5C0706B
:101BA00000EB0110C0F80CC0D078000692F802C01B
:101BB00040EA0C4092F801C040EA0C2092F800C0C4
:101BC00040EA0C00D4F800C00CF5C07C0CEB011C02
:101BD000CCF80800206801E016E00FE000F5C070C6
:101BE00000EB0110006840F0010C206800F5C070A7
:101BF00000EB0110C0F800C0002083E7606A40F4E9
:101C00000010606201207DE7606A40F4802060621D
:101C1000012077E7F0B504460A46216894F8205081
:101C2000012D01D0022D7ED1424901F500710868D5
:101C300040F001000860086820F47C5008600868E3
:101C4000566A40EA06200860107D00F01F06012059
:101C500000FA06F3C8699843C861A1F50071D0691C
:101C6000C8B9D1F80C029843C1F80C02908880B230
:101C7000968940EA064601F51070576940F83760CA
:101C8000108880B2168940EA064601F5107057693F
:101C900000EBC7004660D069012819D1D1F80C02C9
:101CA0001843C1F80C02908880B2168840EA0646B4
:101CB00001F51070576940F83760908980B2168935
:101CC00040EA064601F51070576900EBC700466010
:101CD000906928B9D1F804029843C1F8040204E0DD
:101CE000D1F804021843C1F80402106928B9D1F8E8
:101CF00014029843C1F8140204E0D1F81402184306
:101D0000C1F81402106A012804D1D1F81C0218434A
:101D1000C1F81C02D1F8000220F00100C1F8000255
:101D20000020F0BDFFE7606A40F48020606201207F
:101D3000F7E7000000640040704770B5044694F86F
:101D40002050012D01D0022D7DD151B92068C068ED
:101D500000F0030080B9606A40F400106062012066
:101D600070BD2068006900F0030028B9606A40F483
:101D7000001060620120F3E7206800F5D87000EBE6
:101D80000110006800F004009060906840B920687D
:101D900000F5D87000EB01100068400D106007E0FE
:101DA000206800F5D87000EB01100068C008506092
:101DB000206800F5D87000EB0110006800F0020008
:101DC000D060206800F5D87000EB0110406800F08A
:101DD0000F001061206800F5D87000EB011040681A
:101DE00000F47F40000A9061206800F5D87000EB95
:101DF00001104068000C5061206800F5D87000EBBD
:101E0000011080681870206800F5D87000EB011090
:101E1000806800F47F40000A5870206800F5D87090
:101E200000EB0110806800F47F00000C98702068BF
:101E300000F5D87000EB01108068000ED8702068A3
:101E400000F5D87000E02FE000EB0110C0681871B9
:101E5000206800F5D87000EB0110C06800F47F40E6
:101E6000000A5871206800F5D87000EB0110C068B6
:101E700000F47F00000C9871206800F5D87000EB2A
:101E80000110C068000ED87131B92068C06840F0F8
:101E900020002668F06005E02068006940F020001E
:101EA0002668306100205BE7606A40F48020606251
:101EB000012055E72DE9F05F0446002520684669BA
:101EC0002068D0F80490206887682068D0F80CA0BB
:101ED0002068D0F810B02068D0F8188006F0010013
:101EE000002855D007F00100C0B1012021688860AA
:101EF00007F0020018B1204600F03FFA0EE007F0AC
:101F0000040010B145F4006508E007F0080010B1C6
:101F100045F4805502E0204600F02EFA07F4807068
:101F2000C8B14FF480702168886007F4007018B160
:101F3000204600F024FA0EE007F4806010B145F46A
:101F4000005508E007F4006010B145F4804502E058
:101F5000204600F013FA07F48030C8B14FF4803007
:101F60002168886007F4003018B1204600F009FAB3
:101F70000EE007F4802010B145F4004508E007F4B6
:101F8000002010B145F4803502E0204600F0F8F959
:101F900006F0080038B10AF0100020B145F40075D1
:101FA00010202168C86006F0040040B10AF0080063
:101FB00028B108202168C860204600F0A9F906F081
:101FC000020038B12068C06800F0030010B120465C
:101FD00000F09FF906F0400038B10BF0100020B17E
:101FE00045F4806510202168086106F0200040B1AA
:101FF0000BF0080028B1082021680861204600F095
:1020000089F906F0100038B12068006900F003007B
:1020100010B1204600F07FF906F4003040B109F01D
:10202000100028B1102021684860204600F074F9A3
:1020300006F4803040B109F0080028B1082021687A
:102040004860204600F09EF906F4004088B309F08D
:10205000040078B306F4807020B108F0010008B1E4
:1020600045F0010506F4007020B108F0020008B147
:1020700045F0020506F4806020B108F0040008B1C4
:1020800045F0040506F40060A0B108F0700088B1C6
:1020900008F07000402817D006DC10280BD020284C
:1020A0000CD0302819D10CE0502810D0602814D161
:1020B00010E01DE019E045F008050FE045F01005BF
:1020C0000CE045F0200509E045F0400506E045F04C
:1020D000800503E045F4807500E000BF00BF206884
:1020E000806920F0700021688861042021684860C0
:1020F0002DB1606A284360622046FFF71DFEBDE8EF
:10210000F09F70B504460CB9012070BD94F8200012
:1021100010B9204600F0B0F82068006820F00200F6
:102120002168086000F0A2FB05460DE000F09EFB70
:10213000401B0A2808D9606A40F40030606205201C
:1021400084F820000120E0E72068406800F00200E9
:102150000028EBD12068006840F001002168086089
:1021600000F084FB05460DE000F080FB401B0A28D0
:1021700008D9606A40F400306062052084F82000CD
:102180000120C2E72068406800F001000028EBD081
:10219000207E012806D12068006840F08000216878
:1021A000086005E02068006820F080002168086071
:1021B000607E012806D12068006840F04000216858
:1021C000086005E02068006820F040002168086091
:1021D000A07E012806D12068006840F02000216818
:1021E000086005E02068006820F020002168086091
:1021F000E07E012806D12068006820F010002168E8
:10220000086005E02068006840F010002168086060
:10221000207F012806D12068006840F0080021686E
:10222000086005E02068006820F008002168086068
:10223000607F012806D12068006840F00400216812
:10224000086005E02068006820F00400216808604C
:10225000D4E90201084321690843616908436168C0
:10226000491E08432168C86100206062012084F88B
:102270002000002049E7000010B586B00446142174
:1022800001A8FDF7E7FF1F492068884238D100BF49
:10229000002000901C48006840F000701A49086057
:1022A0000846006800F00070009000BF00BF00BF4B
:1022B0000020009014481038006840F002001249D5
:1022C000103908600846006800F00200009000BF66
:1022D00000BF4FF440700190022002900020039054
:1022E000032004900920059001A9084800F0B0F9E6
:1022F00000221146142000F043FB142000F030FBB4
:1023000006B010BD006400404038024000040240A6
:102310007047704770477047704770B5044694F82F
:102320002000012822D1022084F8200020680068C3
:1023300020F001002168086000F098FA05460DE0E1
:1023400000F094FA401B0A2808D9606A40F4003073
:102350006062052084F82000012070BD206840687C
:1023600000F001000028EBD16062F6E7606A40F4FB
:10237000002060620120F0E77047704770477047A7
:10238000704770477047014691F83500022803D026
:102390008020486501207047052081F835000868D5
:1023A000006820F001000A6810600020F3E70000D8
:1023B0002DE9F0410446002500F058FA074614B90B
:1023C0000120BDE8F081606A00B100BF00BF0020BD
:1023D00084F8340000BF022084F8350020680068CB
:1023E00020F00100216808600AE000F03FFAC01BFD
:1023F000052805D920206065032084F83500E0E732
:102400002068006800F001000028EED1206805680F
:1024100021480540D4E901010843E16808432169E6
:10242000084361690843A1690843E1690843216AD7
:1024300008430543606A042803D1D4E90B0108432B
:102440000543206805602068456925F00705606A36
:102450000543606A04280DD1A06A0543E06A48B1CB
:102460002046FFF771F828B140206065012084F80C
:102470003500A6E7206845612046FFF74BF8064681
:1024800094F85C103F208840B06000206065012017
:1024900084F83500002094E73F8010F070B50446C2
:1024A00000F0E4F906462546681C10B1044800789F
:1024B000054400BF00F0DAF9801BA842FAD370BDD2
:1024C000180000202DE9F04104460E4601270025A2
:1024D00000BF2548007E012802D10220BDE8F0811E
:1024E00001202149087600BF4CF25030FFF7A0FAD6
:1024F0000746002F31D1401E3060206801280FD1DF
:10250000207C6168FFF7D8F94CF25030FFF790FA61
:1025100007461648006820F00400144908601AE0D5
:10252000A56812E0217C2846FFF75CF94CF2503098
:10253000FFF77EFA07460D48006820F0FA000B49C5
:1025400008600FB1356005E06D1CD4E90210084445
:10255000A842E7D800BFFFF773F900BF0020024987
:10256000087600BF3846B9E7180D0020103C02403D
:102570000348006840F000400149086000207047AF
:10258000103C02402DE9F04106460F4614461D4618
:102590004FF0010800BF1F48007E012802D1022031
:1025A000BDE8F08101201B49087600BF4CF2503095
:1025B000FFF73EFA8046B8F1000F23D126B9E1B209
:1025C0003846FFF791F912E0012E04D1A1B2384646
:1025D000FFF7BAF90BE0022E04D121463846FFF787
:1025E000C7F904E022462B463846FFF78FF94CF234
:1025F0005030FFF71DFA80460748006820F00100C0
:102600000549086000BF00200249087600BF404627
:10261000C6E70000180D0020103C024000200949C8
:10262000096801F0004159B10749064A0C3A1160A6
:10263000064911600349096801F0004101B1012018
:1026400070470000103C024023016745AB89EFCD85
:10265000F8B502460B460025002400200021DCE0EE
:10266000012606FA01F51E6806EA0504AC4273D19C
:102670005E68012E08D05E68022E05D05E68112EBD
:1026800002D05E68122E13D190684F000326BE4020
:10269000B0434F00DE68BE40304390605068012672
:1026A0008E40B0431E79C6F300168E403043506012
:1026B000D0684F000326BE40B0434F009E68BE4026
:1026C0003043D0605E68022E02D05E68122E13D1B5
:1026D000CF0802F1200656F827004E07F70E0F2606
:1026E000BE40B0434F07FF0E1E69BE403043CF08C7
:1026F00002F1200646F8270010684F000326BE406E
:10270000B0431E7906F003064F00BE403043106010
:102710005E6806F08056B6F1805F7DD100BF00266E
:102720000096404E366846F480463E4F3E603E4638
:10273000366806F48046009600BF00BF3A4E8F0808
:1027400056F827008E07370F0F26BE40B043374E8E
:10275000B24202D1002624E05EE0354EB24201D101
:1027600001261EE0334EB24201D1022619E0324E5C
:10277000B24201D1032614E0304EB24201D1042608
:102780000FE02F4EB24201D105260AE02D4EB24293
:1027900001D1062605E02C4EB24201D1072600E009
:1027A00008268F073F0FBE4030431F4E8F0846F864
:1027B0002700264E3068A0435E6806F48036B6F5E2
:1027C000803F00D12043214E3060361D3068A04349
:1027D0005E6806F40036B6F5003F00D120431B4E7C
:1027E000361D3060361D3068A0435E6806F48016E2
:1027F000B6F5801F00D12043144E08363060361DD8
:102800003068A0435E6806F40016B6F5001F00D1DC
:1028100020430E4E0C363060491C1029FFF420AFC7
:10282000F8BD000044380240083801400000024072
:102830000004024000080240000C02400010024068
:102840000014024000180240001C0240003C0140FD
:10285000024613690B400BB1012000E000207047D5
:102860000AB1816101E00B0483617047014800688F
:1028700070470000100000200348006803490978F1
:10288000084401490860704710000020180000202B
:1028900010B50D48006840F400700B490860084608
:1028A000006840F4806008600846006840F480706A
:1028B0000860032000F0A2F8002000F007F800F004
:1028C0002BF8002010BD0000003C024070B504460B
:1028D0000E4800784FF47A71B1FBF0F00C490968AA
:1028E000B1FBF0F5284600F021FC08B1012070BDD5
:1028F000102C07D200222146501E00F041F8054856
:10290000046001E00120F2E70020F0E71800002059
:102910001C0000201400002008B500BF002000901B
:102920000E48006840F480400C4908600846006882
:1029300000F48040009000BF00BF00BF0020009066
:10294000081F006840F08050091F086008460068B2
:1029500000F08050009000BF00BF08BD4438024026
:1029600001460846002809DB00F01F0301229A40B7
:1029700043099B0003F1E023C3F8002100BF704727
:102980002DE9F05F80460D461646002702F0C4FF91
:10299000074639462A46334601F00700C0F1070AC8
:1029A000BAF1040F02D94FF0040A01E0C0F1070A9E
:1029B000D14600F1040ABAF1070F02D24FF0000A23
:1029C00001E0A0F1030AD4464FF0010A0AFA09FA1D
:1029D000AAF1010A0AEA020A0AFA0CFA4FF0010BFC
:1029E0000BFA0CFBABF1010B0BEA030B4AEA0B04ED
:1029F0002146404602F098FFBDE8F09F00BF00F07E
:102A00000702064B19684FF6FF031940044B0B43AE
:102A100043EA0221014B196000BF70470CED00E052
:102A20000000FA0570B504460D460CB9012070BDD2
:102A30005848006800F00F00A84209D255490D70AF
:102A40000846006800F00F00A84201D00120EEE720
:102A5000207800F0020002281DD1207800F0040048
:102A6000042805D14C48006840F4E0504A49086009
:102A7000207800F00800082805D14748006840F495
:102A80006040454908604448006820F0F000A168B3
:102A9000084341490860207800F00100A8B360684D
:102AA000012807D13C4808380068C0F34040B8B955
:102AB0000120BCE76068022802D06068032807D1C3
:102AC000354808380068C0F3406048B90120AEE7D7
:102AD000314808380068C0F3400008B90120A6E773
:102AE0002D48006820F00300616808432A49086007
:102AF000FFF7BCFE064609E0FFF7B8FE801B41F277
:102B00008831884202D9032091E707E02248006813
:102B100000F00C006168B0EB810FEDD11D4800683A
:102B200000F00F00A84209D91A490D700846006844
:102B300000F00F00A84201D0012078E7207800F0D3
:102B40000400042807D11448006820F4E050E1682C
:102B5000084311490860207800F00800082808D1CF
:102B60000D48006820F46040216940EAC1000A492C
:102B7000086000F03FF808490968C1F30311074AEB
:102B8000515CC8400649086006480068FFF79EFE91
:102B900000204CE7003C024008380240ACB7000877
:102BA0001C0000201400002001480068704700004D
:102BB0001C00002000B5FFF7F7FF04490968C1F3C6
:102BC0008221034A515CC84000BD00000838024021
:102BD000BCB7000800B5FFF7E7FF04490968C1F377
:102BE0004231034A515CC84000BD00000838024031
:102BF000BCB700082DE9F047002400250026A146B7
:102C00002548006800F00C0020B1042805D00828F1
:102C10003AD105E0DFF8849039E0DFF8849036E0BF
:102C20001D48001F006800F03F041B48001F00689B
:102C300000F4800078B11A481749091F0968C1F3E8
:102C40008811A0FB01700146224600233846FDF79B
:102C5000B7FA05460EE011480F49091F0968C1F38C
:102C60008811A0FB01700146224600233846FDF77B
:102C7000A7FA05460848001F0068C0F30140401C41
:102C80004600B5FBF6F902E0DFF8109000BF00BF88
:102C90004846BDE8F0870000083802400024F400F0
:102CA00000127A00F8B504460CB90120F8BD20786E
:102CB00000F00100002874D0F948006800F00C0012
:102CC00004280DD0F648006800F00C00082813D145
:102CD000F348001F006800F48000B0F5800F0BD1AE
:102CE000EF4808380068C0F34040002859D06068B9
:102CF000002856D10120D9E700BF6068B0F5803FB9
:102D000008D1E7480838006840F48030E4490839C1
:102D100008601EE06068B0F5A02F0DD1E0480838CB
:102D2000006840F48020DE490839086008460068E1
:102D300040F4803008600CE0D9480838006820F47E
:102D40008030D749083908600846006820F48020A0
:102D5000086000BF606890B1FFF788FD054606E097
:102D6000FFF784FD401B642801D903209EE7CC486F
:102D700008380068C0F340400028F1D011E0FFF7A8
:102D800075FD054606E0FFF771FD401B642801D97B
:102D900003208BE7C24808380068C0F34040002891
:102DA000F1D1207800F0020002285FD1BC48006811
:102DB00000F00C0058B1BA48006800F00C00082878
:102DC0001CD1B748001F006800F48000B0B9B448B7
:102DD00008380068C0F3400020B1E068012801D045
:102DE000012063E7AE480838006820F0F800216948
:102DF00040EAC100AA490839086037E0E06800B33A
:102E00000120A8490860FFF731FD054606E0FFF7FD
:102E10002DFD401B022801D9032047E7A0480838B0
:102E20000068C0F340000028F1D09D4808380068D1
:102E300020F0F800216940EAC1009949083908608A
:102E400014E0002097490860FFF710FD054606E0F2
:102E5000FFF70CFD401B022801D9032026E790480C
:102E600008380068C0F340000028F1D1207800F055
:102E7000080008282CD16069A8B101208A4908609F
:102E8000FFF7F4FC054606E0FFF7F0FC401B0228C4
:102E900001D903200AE782486C300068C0F3400083
:102EA0000028F1D014E000207F490860FFF7DEFC25
:102EB000054606E0FFF7DAFC401B022801D9032093
:102EC000F4E677486C300068C0F340000028F1D188
:102ED000207800F00400042870D1002770483830B2
:102EE000006800F0805090B900BF002000906C484E
:102EF0003830006840F08050694938310860084631
:102F0000006800F08050009000BF00BF01276748B4
:102F1000006800F48070B0B96448006840F48070C4
:102F200062490860FFF7A2FC054606E0FFF79EFC39
:102F3000401B022801D90320B8E65C48006800F471
:102F400080700028F2D000BFA068012808D1544842
:102F50006830006840F001005149683108601DE0A8
:102F6000A06805280DD14E486830006840F0040084
:102F70004B49683108600846006840F0010008606D
:102F80000CE047486830006820F00100444968318F
:102F900008600846006820F00400086000BFA068D0
:102FA000A8B1FFF763FC054609E0FFF75FFC401B93
:102FB00041F28831884202D9032077E626E038487A
:102FC00068300068C0F340000028EED013E0FFF73F
:102FD0004DFC054608E0FFF749FC401B41F28831F3
:102FE000884201D9032061E62D4868300068C0F3AB
:102FF00040000028EFD1012F07D129483830006860
:1030000020F0805026493831086000BFA0690028B0
:1030100045D02348006800F00C0008285DD0A06966
:10302000022845D100201F490866FFF71FFC05460E
:1030300006E0FFF71BFC401B022801D9032035E600
:10304000174808380068C0F340600028F1D1D4E97F
:1030500007010843616A40EA81110122A06AC2EBBC
:10306000500041EA00412C20005D41EA00600C491B
:10307000091F086001200B490866FFF7F7FB0546AA
:1030800006E0FFF7F3FB401B022801D903200DE601
:10309000034808380068C0F340600028F1D03FE0E2
:1030A0000838024000004742800E4742007000404E
:1030B00000201C490866FFF7D9FB054606E0FFF72C
:1030C000D5FB401B022801D90320EFE51648006814
:1030D000C0F340600028F2D122E0A069012800D1AD
:1030E000E4E511480830066806F48001E069814291
:1030F00014D106F03F01206A81420FD147F6C0701B
:103100003040616A884209D106F44031A06A8142A8
:1031100004D106F07061E06A814201D00120C5E56A
:103120000020C3E5000047420038024070B5044665
:103130002546681EB0F1807F01D301200FE0681E94
:103140004FF0E02148610F214FF0FF3002F0ECFB1F
:1031500000204FF0E021886107200861002070BD49
:10316000704700002DE9F047044620680568206894
:10317000C668206847694FF00008C14605F00F088F
:10318000B8F1000F0AD105F0200038B106F0200098
:1031900020B1204602F08AF8BDE8F087B8F1000FB0
:1031A00072D007F0010018B906F4907000286BD0B7
:1031B00005F0010030B106F4807018B1E06B40F00A
:1031C0000100E06305F0040030B107F0010018B120
:1031D000E06B40F00200E06305F0020030B107F060
:1031E000010018B1E06B40F00400E06305F0080056
:1031F00048B106F0200010B907F0010018B1E06BEB
:1032000040F00800E063E06B70B305F0200028B1E7
:1032100006F0200010B1204602F048F8206840690E
:10322000C0F38019E06B00F0080010B9B9F1000F8D
:1032300023D0204602F01AF82068406900F04000D0
:10324000402816D12068406920F04000216848617C
:10325000606B50B11748616B0865606BFFF793F8BE
:1032600010B1606B016D88470CE02046FFF778FFD6
:1032700008E02046FFF774FF04E02046FFF770FFE8
:103280000020E06388E7FFE705F0800030B106F03A
:10329000800018B1204602F051FA7DE705F04000A9
:1032A00030B106F0400018B1204601F0EFFF73E79F
:1032B00000BF71E75952000810B504460CB901204F
:1032C00010BDA06900B100E000BF94F8390028B932
:1032D000002084F83800204600F028F8242084F8E4
:1032E00039002068C06820F400502168C86020467A
:1032F00002F030F82068006920F4904021680861ED
:103300002068406920F02A00216848612068C06870
:1033100040F400502168C8600020E063202084F859
:10332000390084F83A000020CAE7000010B586B0E2
:103330000446142101A8FCF78DFF1F49206888422C
:1033400038D100BF002000901C48006840F01000F9
:103350001A4908600846006800F01000009000BF9D
:1033600000BF00BF0020009014481438006840F0EF
:1033700001001249143908600846006800F0010095
:10338000009000BF00BF4FF4C06001900220029087
:1033900000200390032004900720059001A908480D
:1033A000FFF756F9002205212520FFF7E9FA25202D
:1033B000FFF7D6FA06B010BD0010014044380240B5
:1033C0000000024010B5034693F83A0020282FD1A0
:1033D00001B10AB9012010BD00BF93F838000128DF
:1033E00001D10220F7E7012083F8380000BF99627D
:1033F0009A85DA850020D863222083F83A0000BF3E
:10340000002083F8380000BF1868C06840F480705E
:103410001C68E0601868406940F001001C68606149
:103420001868C06840F020001C68E0600020D2E707
:103430000220D0E710B5044606492068884208D12A
:103440000548007800F0ECFC012203490348FFF72F
:10345000B9FF10BD001001400E000020D80C002064
:103460002DE9F84304460D4616461F464FF0000965
:1034700094F8390020285DD105B116B90120BDE8C6
:10348000F88300BF94F83800012801D10220F6E744
:10349000012084F8380000BF0020E063212084F878
:1034A0003900FFF7E3F98146A684E68400BF0020D7
:1034B00084F8380000BF2BE0E08C401EE084A06858
:1034C000B0F5805F16D14B46002280212046009740
:1034D00002F068F908B10320D1E7A846B8F8000067
:1034E000C0F3080021684860206908B9AD1C0FE0EE
:1034F0006D1C0DE04B46002280212046009702F013
:1035000051F908B10320BAE715F8010B21684860AA
:10351000E08C0028D0D14B46002240212046009765
:1035200002F040F908B10320A9E7202084F839000F
:103530000020A4E70220A2E7704700BFFEE70000DA
:1035400010B500224FF400410148FFF789F910BD82
:103550000000024010B50122D1030248FFF780F9B4
:1035600010BD00000000024038B50446F0234FF4BF
:10357000A07200210846009400F0F8F838BD000061
:103580002DE9F05F05460E4614469A4605F10800FF
:10359000B0F5A07F03DC06F11000F02801DDBDE8E6
:1035A000F09F202C01D37E2C00D92024A4F12000F0
:1035B000154901EB001906F10F0083B2E81D82B234
:1035C0003146284600F0B0F9002718E019F807B096
:1035D0004FF007080EE04BFA08F101F0010109B1C4
:1035E000514600E00A99084600F0CCF9A8F1010024
:1035F0004FFA80F8B8F1000FEDDA781CC7B2102F3F
:10360000E4DB00BFCBE7000040B900082DE9FE4F26
:1036100006460F4690469946A8EB060004B2A9EB71
:10362000070005B2002C01DB012001E04FF0FF3064
:103630000290002D01DB012001E04FF0FF300190EE
:10364000002C01DA604204B2002D01DA684205B2B2
:1036500085B9464501DA304600E0404683460C987D
:103660000090601C82B201233946584600F07EF873
:10367000BDE8FE8F601B0FFA80FA00BF3946304666
:103680000C9A00F020F8464502D14F4500D117E0D2
:103690004FEA4A000FFA80FB6842834506DDAAEB39
:1036A00005000FFA80FA0298304486B2A34506DA84
:1036B0000AEB04000FFA80FA0198384487B2DDE77C
:1036C00000BF00BFD4E770B504460D461646B4F5FA
:1036D000A07F01DAF02D00DB70BD2B462246294683
:1036E000204600F021F9304600F04CF900BFF3E726
:1036F0002DE9F84305460E4614461F46DDF82080A6
:1037000011E005F10800B0F5A07F00DD0EE0CDF876
:10371000008014F8012B3B4631462846FFF730FF66
:1037200005F1080085B220780028EAD100BFBDE885
:10373000F883000008B500BF002000900A48006828
:1037400040F00100084908600846006800F00100E8
:10375000009000BF00BF41F211004FF0204108600F
:1037600040F60110486008BD383802402DE9F047A6
:1037700004460D4616461F46DDF82090B4F5A07F9E
:1037800001DAF02D01DBBDE8F087A019B0F5A07FCC
:1037900002DDC4F5A07086B2E819F02802DDC5F19B
:1037A000F00087B2E819401E83B2A019401E82B211
:1037B0002946204600F0B8F806FB07F802E0484624
:1037C00000F0E0F8B8F10000A8F10108F7D100BF5F
:1037D000D9E7000000B587B0142102A8FCF73AFD34
:1037E00000BF002001902948006840F001002749EF
:1037F00008600846006800F00100019000BF00BFAB
:1038000000BF002001900846006840F008000860F2
:103810000846006800F00800019000BF00BF00BF2C
:10382000002001900846006840F01000086008463B
:10383000006800F01000019000BF00BF4CF6B370AC
:1038400002900220039000200490032005900C2099
:10385000069002A90E48FEF7FBFE4FF6807002901C
:103860000C20069002A90B48FEF7F2FE4FF4004030
:10387000029001200390002004900590069002A978
:103880000548FEF7E5FE07B000BD000030380240F5
:10389000000C0240001002400000024070B5FFF72B
:1038A00099FFFFF747FFFFF74BFE3220FEF7F6FDCB
:1038B00000242FE004EB440101EB0411194A505C91
:1038C00000F05BF800250BE004EB440101EB041170
:1038D000144A1144491C485D00F05AF8681CC5B2EE
:1038E00004EB440000EB04100E490844407CA8425D
:1038F000EADC04EB440000EB04100844807C40B197
:1039000004EB440101EB0411064A1144887CFEF7E4
:10391000C5FD641C142CCDD30020FFF725FEFFF756
:1039200019FE70BDC4B700082DE9F04104460D46EC
:1039300016461F462A2000F020F8201200F028F832
:10394000E0B200F025F8301200F022F8F0B200F0FA
:103950001FF82B2000F011F8281200F019F8E8B237
:1039600000F016F8381200F013F8F8B200F010F872
:103970002C2000F002F8BDE8F0814FF0C041088033
:103980007047000001490880704700000000026095
:1039900001490880704700000000026010B50E4821
:1039A0000E4908600E20486000210C488160C1600B
:1039B0004FF44031016100214161017601214176DE
:1039C00000218176C17601774177FEF79AFB08B135
:1039D000FDF706FF10BD000000640040D400002089
:1039E00008B500BF002000901548006840F4800032
:1039F000134908600846006800F48000009000BF8A
:103A000000BF1048104908600020486080210E481F
:103A100081608900C16049000161002141618161CB
:103A2000C161016204214162032181620021C162FE
:103A30000163FEF7BDFC08B1FDF7D2FE08BD000032
:103A40003038024028640240FC00002008B500BF66
:103A5000002000901548006840F0040013490860F9
:103A60000846006800F00400009000BF00BF00BFDF
:103A7000002000900846006840F08000086008467A
:103A8000006800F08000009000BF00BF00BF002071
:103A900000900846006840F0020008600846006890
:103AA00000F00200009000BF00BF08BD30380240A7
:103AB00010B50B480B4908604FF4E1304860002115
:103AC00008488160C16001610C2141610021816170
:103AD000C161FFF7F1FB08B1FDF782FE10BD0000E8
:103AE00000100140D80C002000BFFEE7704770476F
:103AF00010B54FF480711E48FCF7ACFB00201D4947
:103B000008801DA000F0CAF925A000F0C7F927A081
:103B100000F0C4F933A000F0C1F940A000F0BEF9F4
:103B20004DA000F0BBF95BA000F0B8F968A000F070
:103B3000B5F9754800F0B2F9744800F0AFF974486F
:103B400000F0ACF9734800F0A9F9734800F0A6F949
:103B500072A000F0A3F980A000F0A0F98DA000F001
:103B60009DF99CA000F09AF9AAA000F097F910BD69
:103B7000D80B00200C0000200D0A3D3D3D20526F67
:103B8000626F742041726D20436F6E74726F6C208F
:103B900053797374656D203D3D3D0D0A00000000B2
:103BA000436F6D6D616E64733A0D0A00202072657B
:103BB0006C5F726F74617465203C6A6F696E745FCC
:103BC00069643E203C616E676C653E2020202D209C
:103BD00052656C617469766520726F746174696F87
:103BE0006E0D0A0020206162735F726F74617465EC
:103BF000203C6A6F696E745F69643E203C616E6749
:103C00006C653E2020202D204162736F6C757465B9
:103C100020726F746174696F6E0D0A0020207379D1
:103C20006E63203C61313E203C61323E203C61337A
:103C30003E203C61343E203C61353E203C61363EB6
:103C4000202D2053796E6320616C6C206A6F696E41
:103C500074730D0A0000000020206175746F203C11
:103C6000783E203C793E203C7A3E202020202020B7
:103C7000202020202020202020202D20436172742D
:103C8000657369616E206D6F76652028494B290D3B
:103C90000A00000020207A65726F2020202020205A
:103CA0002020202020202020202020202020202014
:103CB0002020202020202D205365742063757272EF
:103CC000656E74206173207A65726F0D0A000000C2
:103CD000202073746F70202020202020202020209E
:103CE00020202020202020202020202020202020D4
:103CF00020202D20456D657267656E637920737491
:103D00006F700D0A00000000B0C30008C8C40008AE
:103D10003CC4000880C40008F4C300082020726C72
:103D20005F73746570203C64313E203C64323E20F9
:103D30003C64333E203C64343E203C64353E203CB1
:103D400064363E202D20524C20616374696F6E20D2
:103D5000737465700D0A0000202064656D6F5F6AE2
:103D60006F696E7420202020202020202020202019
:103D7000202020202020202020202D2052756E2061
:103D80006A6F696E742073706163652064656D6F1E
:103D90000D0A0000202064656D6F5F7069636B2001
:103DA0002020202020202020202020202020202013
:103DB0002020202020202D2052756E207069636BFA
:103DC0002D616E642D706C6163652064656D6F0D8F
:103DD0000A000000202064656D6F5F636972636C88
:103DE000652020202020202020202020202020208E
:103DF0002020202020202D2052756E2063697263C0
:103E0000756C6172206D6F74696F6E2064656D6F83
:103E10000D0A000052656164793E0D0A0000000041
:103E200010B504460A2C01D00D2C12D1164800887A
:103E3000002828DD00201549134A128888540846B6
:103E400005F0E4FA00201049088011A000F026F8DF
:103E500019E0082C01D07F2C09D10B4800880028DC
:103E600011DD09480088401E074908800BE006481C
:103E70000088FF2807DA044801880088401C024AAD
:103E800010800248445410BD0C000020D80B0020C4
:103E900052656164793E0D0A0000000030B58BB0B8
:103EA00004462046FCF7E1F985B264232A46214600
:103EB0002448FFF7D5FA022223A12046FCF7EAF9AD
:103EC000D8B9002504E0605D01A94855681CC5B259
:103ED000605D38B1605D0D2804D0605D0A2801D0B6
:103EE000272DF0DB002001A94855002101A801F091
:103EF0002FF8002000F08EFF21E0052213A12046BC
:103F0000FCF7C8F9D8B9002504E0605D01A948555F
:103F1000681CC5B2605D38B1605D0D2804D0605D7D
:103F20000A2801D0272DF0DB002001A948550121E6
:103F300001A801F00DF8022000F06CFF00BF0BB0EB
:103F400030BD0000D80C00204F4B00004572726F4E
:103F500072000000062802DB9FED050A7047C0EBE7
:103F6000C001044A02EB810191ED000AF6E700006E
:103F700000000000300A002010B5002464E004EBCB
:103F80004400384901EBC00090ED000AC4EBC400C6
:103F9000354901EB800080ED000A04EB4400314913
:103FA00001EBC0000079C4EBC4012F4A02EB810190
:103FB000087104EB44002B4901EBC00090ED020AAC
:103FC000C4EBC400114601EB800080ED020A04EB53
:103FD0004400244901EBC00090ED030AC4EBC40087
:103FE000114601EB800080ED030A04EB44001D49FB
:103FF00001EBC00090ED040AC4EBC400114601EBD4
:10400000800080ED040A04EB4400164901EBC00077
:10401000007DC4EBC40102EB810108759FED130A1A
:10402000C4EBC400114601EB800080ED060A04EBEE
:1040300044000C4901EBC000D0ED000AB0EE600A6C
:10404000204600F0A7FA641C062C98DB40220849A1
:104050000548A830FCF7E5F80120034981F8E8009D
:1040600010BD0000C8B50008300A002000000000A4
:1040700058B600082DE9F0472DED108B84B00546A9
:10408000F0EE408AB0EE60FA0E46062D06DB4FF0E9
:10409000FF3004B0BDEC108BBDE8F087C5EBC50068
:1040A000514901EB800494ED000A30EE288A94ED2A
:1040B000030AB4EEC80AF1EE10FA06DC94ED040A25
:1040C000B4EEC80AF1EE10FA02D24FF0FF30E0E78A
:1040D000681CC7B2F5EEC08AF1EE10FA01DD207956
:1040E00004E0207908B9012000E00020824694ED28
:1040F000020A10EE101A0846FCF71EFD41EC1C0BDC
:104100001FEE100AFCF718FD41EC1E0BB0EE4E0A34
:10411000F0EE6E0A01F0E8FEB0EE40DAF0EE60DAA2
:1041200053EC1C2B51EC1D0BFCF70CFC41EC1B0B56
:104130009FED2E0B53EC102BFCF704FC41EC1A0BFB
:104140009FED2C0B53EC102BFCF76EFC41EC190B84
:10415000FCF7D9FC1FFA80F894ED020A10EE101A51
:104160000846FCF7E9FC41EC1A0B18EE900AFCF744
:10417000E3FC41EC1D0BB0EE4D0AF0EE6D0A01F0D0
:10418000B3FEB0EE40CAF0EE60CA9FED1A0B53ECDE
:10419000102B51EC1C0BFCF747FC41EC1B0B53ECB8
:1041A0001A2BFCF7CFFB41EC190B9FED140B53ECD2
:1041B000102BFCF7C7FB41EC1E0BFCF7A4FC81465F
:1041C0000020CDE9009033464246514602903846E1
:1041D000FDF710FA84ED008AB0EE480A284600F098
:1041E000D9F9002055E70000300A00200000000047
:1041F00000C0824000000000008076400000000007
:104200000000A9402DE9F04F2DED088B83B0054645
:10421000B0EE409A8B461746002122E0C1EBC10068
:10422000564B03EB800205EB810090ED000AD2EDC6
:10423000030AB4EEE00AF1EE10FA0AD305EB8100AE
:1042400090ED000AD2ED040AB4EEE00AF1EE10FAA5
:1042500006DD4FF0FF3003B0BDEC088BBDE8F08FFA
:10426000491C0629DADB00247CE0C4EBC400434986
:1042700001EB800605EB840090ED000AD6ED000A04
:1042800030EE600AB0EE408A18EE100AFCF754FCDB
:1042900041EC1B0BB0EE4B0AF0EE6B0A01F024FE72
:1042A000B0EE40AAF0EE60AA9FED350B53EC102B58
:1042B00051EC1A0BFCF754FC00D252E0601C00F0E9
:1042C000FF08B5EEC08AF1EE10FA02DD96F8049010
:1042D00009E0307908B9012000E000208146B1EE04
:1042E000480AB0EE408A96ED020A20EE090ADFED98
:1042F000260A20EE200ADFED250A80EE201ABCEE09
:10430000C10A10EE100A1FFA80FADFED200A88EECB
:10431000200AD6ED020A20EE200ADFED1D0A20EE6B
:10432000200AFCEEC08A0020CDED008A5B46524692
:104330004946CDE901074046FDF75CF90A20FEF742
:10434000ADF805EB840090ED000A86ED000A05EB60
:104350008400D0ED000AB0EE600A204600F01AF9A1
:1043600000BF641C062C80DB2FB10020FDF726FA6D
:104370000A20FEF793F800206DE70000300A0020C5
:10438000000000A09999B93F000016440000B44312
:104390000000484510B52DED048B96B0B0EE408A74
:1043A000B0EE609AF0EE419AF0EE618A4022134935
:1043B00006A8FBF736FF8DED098A8DED0D9ACDED40
:1043C000119A0022694606A800F0CAF804462CB1EA
:1043D0004FF0FF3016B0BDEC048B10BD0122C82198
:1043E000B0EE680A6846FFF70DFF044624B9402284
:1043F00006A90248FBF715FF2046EBE7D80A002084
:104400002DE9F04104460D46062C00DA1DB94FF0A7
:10441000FF30BDE8F081601CC6B200201C4981F865
:1044200074000F213046FDF711F9FEF71FFA00F175
:10443000640700BF164890F8740018B9FEF716FA22
:10444000B842F7D3124890F8740010B94FF0FF301B
:10445000DFE70F48007F362802D04FF0FF30D8E763
:104460000B48807F01040A48C07F41EA00200849C8
:1044700091F8201040EA01080548407F012802D148
:10448000C8F1000000E0404628600020C1E70000BD
:104490005C00002070B5002408E0601CC5B228460E
:1044A000FDF764F90A20FDF7F9FF641C062CF4DB24
:1044B00070BD70B5002409E0601CC5B2002128461B
:1044C000FDF766F90A20FDF7E9FF641C062CF3DB13
:1044D00070BD000030B52DED028B81B000250024A9
:1044E00030E000200090E0B26946FFF789FF28BB6A
:1044F000C4EBC400174901EB800090ED020AF0EE16
:10450000408A9DED000AF8EEC00A9FED131A80EE76
:10451000810AC0EE280A9FED110A20EE800AB0EE53
:10452000408AC4EBC40001EB800080ED008AE0B259
:10453000B0EE480A00F02EF86D1C00BF0A20FDF70F
:10454000ADFF641C062CCCDB284601B0BDEC028B11
:1045500030BD0000300A0020000048450000B44390
:104560002DE9F04104460D461746402221460848F1
:10457000FBF757FE06F0BAF806F0F8FE06F050FE1C
:10458000284606F0B1FD06463046BDE8F081000041
:104590001C0B0020062800D37047034901EB800163
:1045A00081ED000A00BFF7E7C00B00202DE9F041C4
:1045B0002DED108B9FED440AF0EE409A9FED430ADB
:1045C000B0EE40EA9FED420AF0EE40EAB3EE0E0A8A
:1045D000B0EE40FA0C27002472E000EE104AB8EE6C
:1045E000C00ADFED3C0A20EE200AF2EE080A80EE57
:1045F000201A11EE105A2846FCF79EFA41EC1D0BCA
:10460000B0EE4D0AF0EE6D0A01F00AFCB0EE40CAC1
:10461000F0EE60CA9FED300B53EC102B51EC1C0BED
:10462000FCF790F941EC1B0B9FED2D0B53EC102B7D
:10463000FCF7E1F841EC1A0BFCF7C2FA08EE100A9D
:104640009FED220AF0EE408A2846FCF775FA41EC0D
:104650001D0BB0EE4D0AF0EE6D0A02F0F9FAB0EE65
:1046600040CAF0EE60CA9FED1C0B53EC102B51ECCE
:104670001C0BFCF767F941EC1B0B9FED1B0B53EC7C
:10468000102BFCF7B8F841EC1A0BFCF799FA09EE7D
:10469000100AF2EE001AB0EE491AF0EE680AB0EE17
:1046A000480AFFF777FE06462EB14FF0FF30BDEC0B
:1046B000108BBDE8F0814FF49670FDF7EFFE641C9F
:1046C0000C2C8ADD0020F2E700004842008038C34D
:1046D00000004843DB0FC9400000000000003E40DE
:1046E0000000000000004940000000000000694098
:1046F00070B52DED028B88B00525002424E0C4EBB5
:10470000C400134A02EB80011C2201A8FBF789FDBB
:104710009DED070AF2EE040A20EE200AB0EE408A70
:104720000122C821B0EE480A01A8FFF76BFD06463A
:104730002EB14FF0FF3008B0BDEC028B70BD4FF4CE
:104740007A70FDF7ABFE641CAC42D8DB0020F2E7C8
:1047500018B7000870B52DED028B84B00825002431
:104760002AE0174800EB04130FCB8DE80F009DEDF6
:10477000030AF2EE040A20EE200AB0EE408ADDEDD4
:10478000021AB0EE611ADDED011AF0EE610ADDEDFC
:10479000001AB0EE610AF0EE481AFFF7FBFD06467C
:1047A0002EB14FF0FF3004B0BDEC028B70BD4FF462
:1047B000FA70FDF773FE641CAC42D2DB0020F2E716
:1047C00098B60008704710B5FEF756F810BD000007
:1047D00000B593B0302107A8FBF73CFD142102A8D7
:1047E000FBF738FD00BF002001902448006840F02E
:1047F0008050224908600846006800F0805001900F
:1048000000BF00BF00BF002001901D48006840F4B9
:1048100080401B4908600846006800F48040019011
:1048200000BF00BF012007900004089002200D90F7
:1048300041050E9104210F91A8211091022111919F
:104840000421129107A8FEF72DFA08B1FCF7C8FF62
:104850000F20029002200390002004904FF4A050FB
:1048600005904FF480500690052102A8FEF7DAF873
:1048700008B1FCF7B5FF13B000BD0000403802409E
:10488000007000400548006840F47000034908606B
:104890004FF00060014980390860704788ED00E002
:1048A000002001490870704720000020014800786E
:1048B000704700002000002070B588B004460D4607
:1048C000FDF7D4FF064648480068301AB0F5967FD9
:1048D00002D2002008B070BD43480660434800780B
:1048E000012806D002281ED0032836D0042877D10C
:1048F0004DE03F480480458002203C49087000207C
:10490000FEF732FE00204FF4FC633AA20A21009029
:104910001420FEF7EDFE3B4AD18890884FF4784290
:1049200004F0CEFB5DE032488480C58003202F492F
:1049300008700020FEF718FE00204FF4FC6332A23E
:104940000A2100901420FEF7D3FE2E4A51891089C7
:104950004FF4784204F0B4FB43E0254804814581DC
:104960000420224908700020FEF7FEFD00204FF4CD
:10497000FC6329A20A2100901420FEF7B9FE214A07
:10498000D18990894FF4784204F09AFB29E01848C5
:104990008481C58105201549087002A804F038FB00
:1049A00002A800F04BFC00F00BFC0020FEF7DCFD41
:1049B00000204FF4FC631CA2642100903C20FEF711
:1049C00097FE002040F2FF731DA2782100903C204A
:1049D000FEF78EFE06200549087001207AE7FFE702
:1049E00000BF00BF002075E7240000202000002049
:1049F000540D0020506F696E7420312F34204F4BBE
:104A00000000000048BF0008506F696E7420322F0C
:104A100034204F4B00000000506F696E7420332F1C
:104A200034204F4B0000000043616C696272617476
:104A3000696F6E20436F6D706C65746521000000B6
:104A4000546F75636820746F20636F6E74696E7540
:104A5000652E2E2E0000000008B50020FEF784FD14
:104A600000204FF6FF7311A20A2100901420FEF7D8
:104A70003FFE002040F2FF7311A21E21009014207F
:104A8000FEF736FE134A518810884FF4784204F03E
:104A900017FB012010490870FDF7E8FE0F49086078
:104AA00010210F48FBF7D6FB08BD0000546F75635B
:104AB000682043616C6962726174696F6E00000006
:104AC00054617020656163682063726F73736861FD
:104AD0006972000048BF0008200000202400002068
:104AE000540D0020014890ED000A70472800002076
:104AF0002DE9F04105460E46002124E001EB81003E
:104B00005A4A32F82000A8421BDC01EB810002EB7C
:104B100080008088A84214DD01EB810002EB800058
:104B20004088B0420DDC01EB810002EB8000C088C0
:104B3000B04206DD01EB810002EB8000007ABDE8A7
:104B4000F081481C81B20C29D8D3002123E001EB6D
:104B50008100474A32F82000A8421ADC01EB8100AC
:104B600002EB80008088A84213DD01EB810002EB9C
:104B700080004088B0420CDC01EB810002EB800039
:104B8000C088B04205DD01EB810002EB8000007AB5
:104B9000D5E7481C81B20329D9D3002461E004EB96
:104BA0008400344931F82000A84258DC04EB84002A
:104BB00001EB80008088A84251DD04EB840001EB0A
:104BC00080004088B0424ADC04EB840001EB8000A6
:104BD000C088B04243DD04EB840001EB8000007A22
:104BE000102806D011280AD012280ED0132818D168
:104BF00011E0B7EE000A204880ED000A12E0B1EEA5
:104C0000040A1D4880ED000A0CE0B2EE040A1A48BE
:104C100080ED000A06E0B3EE0E0A174880ED000AA8
:104C200000E000BF00BF00270EE0A74201D1012233
:104C300000E00022114607EB87020E4B03EB8200D7
:104C400004F0B8FA781C87B2042FEED304F060FBAE
:104C500004EB8400074901EB8000007A6FE7601CD9
:104C600084B2042C9BD3002069E7000058BF0008E1
:104C700048C0000884C000082800002038B5FEF7AE
:104C80000DFE41F6C300F0234FF4A0720021009006
:104C90000846FEF76BFD41F24A1018234FF4A0724C
:104CA000002100900846FEF761FD41F24A104FF6E0
:104CB000FF7350A2042100900846FEF719FD04F08E
:104CC00027FB04F03FFA04F01DFA002409E004EB8E
:104CD00084014B4A02EB8100002104F06BFA601C56
:104CE00084B20C2CF3D3002409E004EB8401454A80
:104CF00002EB8100002104F05DFA601C84B2032CF9
:104D0000F3D3002468E000253F4890ED000AF7EE59
:104D1000080AB4EEE00AF1EE10FA08D204EB8400BF
:104D20003A4901EB8000007A102800D1012536486D
:104D300090ED000AF1EE0E0AB4EEE00AF1EE10FA80
:104D400011D290ED000AF7EE080AB4EEE00AF1EE97
:104D500010FA08DB04EB84002C4901EB8000007A98
:104D6000112800D10125284890ED000AF3EE040A2D
:104D7000B4EEE00AF1EE10FA11D290ED000AF1EE75
:104D80000E0AB4EEE00AF1EE10FA08DB04EB840040
:104D90001E4901EB8000007A122800D101251A4833
:104DA00090ED000AF3EE040AB4EEE00AF1EE10FA18
:104DB00008DB04EB8400154901EB8000007A13281E
:104DC00000D1012504EB8401104A02EB8100294641
:104DD00004F0F0F9601C84B2042C94D341F6C300B3
:104DE00048F210430AA2AA2100909020FEF780FC0E
:104DF00038BD0000524F424F542041524D00000038
:104E000058BF000848C000082800002084C00008DF
:104E10006465670010B504460248047004F092F916
:104E200010BD00002C0000202DE9F04188B006469E
:104E30001A274FF02A08434903C9CDE9040142A0CB
:104E40000068039041A000680290002474E004A868
:104E500030F8145041F6C30048F210434A22394654
:104E600000902846FEF78CFB41F6C30003A9009092
:104E70000A5D05F1080188B248F210433946FEF791
:104E80007FFB41F6C30005F11001009088B248F2A3
:104E900010433A223946FEF773FB06EB8400D0ED4F
:104EA000000AB0EE600A06A804F034FD41F6C30023
:104EB00005F11801009088B246F2F47306AA39464B
:104EC000FEF716FC41F6C30048F210434A22414661
:104ED00000902846FEF754FB41F6C30002A900905B
:104EE0000A5D05F1080188B248F210434146FEF719
:104EF00047FB41F6C30005F11001009088B248F26B
:104F000010433A224146FEF73BFBE01C06EB8000D3
:104F1000D0ED000AB0EE600A06A804F0FBFC41F6F2
:104F2000C30005F11801009088B246F2F47306AA96
:104F30004146FEF7DDFB641C032C88DB08B0BDE8AE
:104F4000F0810000D4C0000831323300343536001F
:104F50002DE9F84305460E463A2716B14FF68A204A
:104F600001E045F2EF608046002404E0285D164928
:104F70000855601CC4B2285D08B1172CF6DB002070
:104F8000114908551148067041F6C30010234FF42B
:104F9000A072394600900020FEF7E8FB41F6C300FE
:104FA00048F210430AA2394600900420FEF7A0FB05
:104FB00041F6C3004346044A394600902420FEF7D8
:104FC00097FBBDE8F88300002D000020450000207D
:104FD0005374733A0000000000B587B0142102A892
:104FE000FBF738F900BF002001902B48006840F023
:104FF0000800294908600846006800F00800019090
:1050000000BF00BF00BF002001900846006840F0CC
:10501000100008600846006800F01000019000BF12
:1050200000BF01200390002004900220059000039F
:10503000029002A91948FDF70BFB0120029002A97A
:105040001748FDF705FB0420029002A91448FDF75C
:10505000FFFA08200290002003900120049002A98A
:105060000F48FDF7F5FA1020029000200390012070
:10507000049002A90A48FDF7EBFA01225103074800
:10508000FDF7EEFB002201210548FDF7E9FB00F0EA
:1050900015F807B000BD000030380240000C024097
:1050A0000010024010B510210348FDF7D1FB08B9EC
:1050B000012010BD0020FCE70010024010B50B4C91
:1050C0000B492068884208D11822211D0948FBF7A6
:1050D000A8F801200749087607E018220649054884
:1050E000FBF79FF801200349087610BD0000060871
:1050F0003412FECA380D002030BF00082DE9FE4FE3
:10510000044614B90020BDE8FE8FFFF7CBFF30B98D
:10511000002020706080A080E0802081F3E7902054
:1051200006F0C0F90746D02006F0BCF98046902072
:1051300006F0B8F98146D02006F0B4F982469020F6
:1051400006F0B0F98346D02006F0ACF902905A463A
:105150004946384604F088FD054651464046029AC5
:1051600004F082FD0646FFF79DFF30B90020207055
:105170006080A080E0802081C5E76B4601AA3146AF
:10518000284603F05DFE01202070BDF80400608019
:10519000BDF80000A080E58026810120B3E770B54E
:1051A00004460D4604B105B970BD902006F07AF9A9
:1051B0002080D02006F076F9288000BFF4E70000B8
:1051C0002DE9F0418EB01A4807901822194908A815
:1051D000FBF727F8FDF722FA142102A8FBF73AF8AB
:1051E00000200290022006900720049001200590E4
:1051F0000020019001A902A8FDF764F990B90E4DB5
:1052000007AF4FF00708002409E057F82460324642
:10521000002329460220FDF7B5F92D1D641C4445E5
:10522000F3D300BFFDF7A4F90EB0BDE8F081000094
:105230003412FECA380D00200000060810B50446DE
:10524000182221460348FAF7ECFF012001490876AD
:1052500010BD0000380D002070B50546AC6B002075
:10526000E085E0842046FDF77BFF70BD0168C968DA
:1052700021F490710268D1600168496921F001014F
:1052800002685161202180F83A10704710B5044639
:105290002068C06820F040002168C860202084F8A1
:1052A00039002046FEF748F9002010BD70B50446CD
:1052B00094F83A0022284AD1A068B0F5805F13D153
:1052C000A56A206940B920684068C0F308002880BA
:1052D000A06A801CA06219E020684068C0B22880E3
:1052E000A06A401CA06211E0206938B920684068BB
:1052F000C1B2A26A501CA062117007E02068406829
:1053000000F07F01A26A501CA0621170E08D401E67
:1053100080B2E085C8B92068C06820F0200021680C
:10532000C8602068C06820F480702168C860206868
:10533000406920F0010021684861202084F83A008B
:105340002046FEF777F8002070BD0020FCE7022021
:10535000FAE700002DE9F84F04462068006920F4C0
:105360004050E1680843216808612169A06808434A
:1053700061690843E169084300902068C06849F208
:105380000C618843009908432168C860206840691F
:1053900020F44070A169084321684861E069B0F5D4
:1053A000004F75D1E3492068884203D0E249206864
:1053B00088426FD1FDF70EFC814602206168A0FB98
:1053C00001510B461920A9FB00712A463846FAF70D
:1053D000F7FE6421B0FBF1F04FEA001A0220616889
:1053E000A0FB01510B461920A9FB00712A46384643
:1053F000FAF7E6FE074602206168A0FB01510B4662
:105400001920A9FB00B12A465846FAF7D9FE6421B3
:10541000B0FBF1F000EBC00101EB0010A7EB800046
:10542000322101EBC0006421B0FBF1F000F0F80084
:105430000AEB400A02206168A0FB01510B461920CB
:10544000A9FB00712A463846FAF7BAFE0746022041
:105450006168A0FB01510B461920A9FB00B12A4647
:105460005846FAF7ADFE6421B0FBF1F000EBC00145
:1054700001EB0010A7EB8000322101EBC00064219A
:10548000B0FBF1F000F007005044216888604FE164
:105490006EE0FFE7FDF78EFB814602206168A0FB0E
:1054A00001510B461920A9FB00712A463846FAF72C
:1054B00087FE6421B0FBF1F04FEA001A0220616818
:1054C000A0FB01510B461920A9FB00712A46384662
:1054D000FAF776FE074602206168A0FB01510B46F1
:1054E0001920A9FB00B12A465846FAF769FE642143
:1054F000B0FBF1F000EBC00101EB0010A7EB800066
:10550000322101EBC0006421B0FBF1F000F0F800A3
:105510000AEB400A02206168A0FB01510B461920EA
:10552000A9FB00712A463846FAF74AFE07460220D0
:105530006168A0FB015003461920A9FB00B12A466F
:105540005846FAF73DFE6421B0FBF1F000EBC001D4
:1055500001EB0010A7EB8000322101EBC0006421B9
:10556000B0FBF1F000F00700504421688860DFE0F4
:1055700070492068884203D06F49206888426BD107
:10558000FDF728FB814604206168A0FB01510B4612
:105590001920A9FB00712A463846FAF711FE824607
:1055A00004206168A0FB01510B461920A9FB007182
:1055B0002A463846FAF704FE6421B0FBF1F000EB0E
:1055C000C00101EB0010AAEB8000322101EB0010BA
:1055D0006421B0FBF1F000F0F00A04206168A0FB48
:1055E000015003461920A9FB00712A463846FAF7F4
:1055F000E7FD6421B0FBF1F00AEB001A04206168BA
:10560000A0FB01510B461920A9FB00712A46384620
:10561000FAF7D6FD074604206168A0FB0150034657
:105620001920A9FB00B12A465846FAF7C9FD6421A2
:10563000B0FBF1F000EBC00101EB0010A7EB800024
:10564000322101EB00106421B0FBF1F000F00F00FB
:105650005044216888606BE0FDF7ACFA8146042075
:105660006168A0FB015003461920A9FB00712A467E
:105670003846FAF7A5FD824604206168A0FB015078
:1056800003461920A9FB00712A463846FAF798FD0F
:105690006421B0FBF1F000EBC00101EB0010AAEBBC
:1056A0008000322101EB00106421B0FBF1F000F02A
:1056B000F00A04206168A0FB015003461920A9FBF1
:1056C00000712A463846FAF77BFD6421B0FBF1F001
:1056D0000AEB001A04206168A0FB01700346192040
:1056E000A9FB005001463A462846FAF769FD0746ED
:1056F00004206168A0FB015003461920A9FB00B1FA
:105700002A465846FAF75CFD6421B0FBF1F000EB45
:10571000C00101EB0010A7EB8000322101EB00106B
:105720006421B0FBF1F000F00F0050442168886064
:10573000BDE8F88F0010014000140140014691F8C7
:10574000390021282CD18868B0F5805F0FD10A6A12
:105750001088C0F308000B685860086918B9086A17
:10576000801C086209E0086A401C086205E00B6AB8
:10577000581C086218780B685860C88C401E80B2AC
:10578000C88458B90868C06820F080000B68D860E9
:105790000868C06840F040000B68D860002070477F
:1057A0000220FCE72DE9F04104460D4617469846D5
:1057B000069E21E0701CF8B12EB1FDF757F8A0EB62
:1057C0000800B04218D92068C06820F4D070216861
:1057D000C8602068406920F00100216848612020ED
:1057E00084F8390084F83A0000BF002084F83800BB
:1057F00000BF0320BDE8F081206800682840A8426F
:1058000001D1012000E00020B842D3D00020F1E710
:1058100010B50248FDF7A6FC10BD0000D80C002012
:1058200010B5012202490348FDF7CCFD10BD000070
:105830000E000020D80C002000B591B0002006908A
:105840009DF81800401103909DF818004FF6FF7165
:1058500001EAC020001D0490002005909DF814006E
:10586000401101909DF8140001EAC020001D029033
:1058700000200C900D9001200E90BDF80C000790B8
:10588000BDF810000890BDF804000990BDF80800AC
:105890000A9000200B9001200F900020109000BF74
:1058A00007A90348FCF7B6F90028F9D111B000BDEB
:1058B000D400002000BFFEE70FB41CB50246002054
:1058C00007AC00290BD0491ECDE90021054B6A46E3
:1058D0002146069802F012FF009A002111701CBCAC
:1058E0005DF814FB2B8E000803B40198410000986A
:1058F00050EAC12018BF04204A0D18BF40F0010033
:1059000040F2FF72B2EB515F08BF40F00200012885
:1059100008BF052002B0704702480068C0F30220AB
:10592000704700000CED00E010B5002804DB0A070A
:10593000130E054A135406E00A07140E034A00F03A
:105940000F031B1FD45410BD00E400E018ED00E06D
:10595000004870474C00002070B59B482DED020BAD
:105960002DED068B079D25F00044A04218DC9748DA
:10597000844202DC0AD1069840B19DED060BBDECD5
:10598000068B02B0BDE8704001F006BE002DCCBF12
:105990009FED8F0B9FED900BBDEC068B02B070BDA1
:1059A0008F48A04215DD8F48A042D8BF4FF0FF348A
:1059B00058DD9DED060B51EC100BFFF795FF042809
:1059C00008BF01F01DFE9DED060BBDEC068B02B07D
:1059D00070BD9DED060B51EC100B03F08FFFCDE970
:1059E000060181489FED828BA0423CDD8248A042A7
:1059F0001FDD00249FED82AB9DED060B53EC1A2BAF
:105A000051EC100BFAF7F7FE9DED060B41EC190B6C
:105A100053EC1A2B51EC100BFAF794FF53EC182BA4
:105A2000FAF78AFF53EC192BFAF7FEFFCDE90601CE
:105A300049E09DED060B012453EC182B51EC100BA3
:105A4000FAF7D9FE9DED060B41EC190B53EC182B20
:105A500051EC100BFAF770FF53EC192BFAF7E4FF37
:105A6000CDE906012FE06848A0421FDD02249FED2A
:105A7000689B9DED060B53EC192B51EC100BFAF7BC
:105A800061FF53EC182BFAF7B6FE9DED060B41ECC7
:105A9000180B53EC192B51EC100BFAF74DFF53EC8C
:105AA000182BFAF7C1FFCDE906010CE09DED060BBE
:105AB000032453EC102B9FED580B51EC100BFAF70D
:105AC000B3FFCDE906019DED060B53EC102B51EC15
:105AD000100BFAF737FF41EC180B53EC182BFAF7C1
